:03000000020ADA17
:0C0ADA00787FE4F6D8FD75810E0208C597
:100800005741544552204C4556454C3A3025004DF1
:100810004F544F523A4F4E2020204155544F0057CD
:1008200041544552204C4556454C3A3230250057EC
:1008300041544552204C4556454C3A3430250057DA
:1008400041544552204C4556454C3A3630250057C8
:1008500041544552204C4556454C3A3830250057B6
:1008600041544552204C4556454C3A3130302500D4
:100870004D4F544F523A4F46462020204155544F39
:10088000002020416268697368656B20596164616A
:10089000762020200020203139303430383230307A
:1008A00031202020200020205741544552204C4523
:1008B00056454C00202020434F4E54524F4C4C453F
:0508C000522020200081
:100ABA008FA0C2B0D2B17F2C7E01120AA8C2B12285
:100ACA008FA0D2B0D2B17F907E01120AA8C2B12201
:100A22008B0C8A0D890EAB0CAA0DA90E120A8FFF30
:100A32006017120ACA7401250EF50EE4350DF50D84
:0A0A42007F2C7E01120AA880DD223D
:100AA800E4FDFCD3ED9FEC9E50070DBD00010C80CA
:010AB800F24B
:010AB900221A
:100A6F007FF47E01120AA87F38120ABA7F0C120A8D
:100A7F00BA7F06120ABA7F01120ABA7F80020ABA37
:100A4C0020B31DD29020B41520B50F20B60920B7C5
:100A5C00037F64227F50227F3C227F28227F142236
:030A6C007F0022E6
:10097C00EF24EC602924EC603724EC604524EC6017
:10098C005324EC606F24646003020A21C290C2916C
:10099C00C292C293C2947BFF7A0879008046D290AF
:1009AC00C291C292C293C2947BFF7A08791F8034A1
:1009BC00D290D291C292C293C2947BFF7A08792FC3
:1009CC008022D290D291D292C293C2947BFF7A08A9
:1009DC00793F8010D290D291D292D293C2947BFF65
:1009EC007A08794F120A227FC0120ABA7BFF7A0862
:1009FC00790F801ED290D291D292D293D2947BFF57
:100A0C007A08795F120A227FC0120ABA7BFF7A0831
:060A1C007970120A22228B
:0B0AE600D2B2D295C296D295C29622E1
:0B0AF100C2B2C295C296C295C2962206
:1008C500E4F50A750B01120A6FE4F508F5097BFFDB
:1008D5007A087981120A227FC0120ABA7BFF7A0848
:1008E5007995120A22E4FFFE120AA80509E50970A6
:1008F500020508D39405E508940040D27F01120A49
:10090500BAE4F508F5097BFF7A0879A6120A227F71
:10091500C0120ABA7BFF7A0879B4120A22E4FFFEF4
:10092500120AA80509E50970020508D39405E5082A
:10093500940040D27F01120ABA120A4C8F0AE50AC6
:10094500650B60F5120A6FAF0A12097C850A0B3038
:10095500B31130B40E30B50B30B60830B705120AF6
:10096500E680D620B3D320B4D020B5CD20B6CA209A
:07097500B7C7120AF180C2AE
:100A8F00BB010689828A83E0225002E722BBFE0265
:090A9F00E32289828A83E4932298
:00000001FF
